:100000000C94BA000C94E2000C94E2000C94730778
:100010000C9473070C9473070C94E2000C94E200A8
:100020000C94E2000C94E2000C94E2000C94E200C8
:100030000C94E2000C94E2000C94E2000C94E200B8
:100040000C9429070C94E2000C94F7060C94D1064A
:100050000C94E2000C94E2000C94E2000C94E20098
:100060000C94E2000C94E200000000080002010081
:1000700000030407000000000000000072657370B8
:100080006F6E73653A2000556E6B6E6F776E206FE2
:1000900070636F646520696E20726573706F6E7334
:1000A000653A2030780057726F6E67206F70636F0B
:1000B000646520726573706F6E736500436F727252
:1000C00075707420726573706F6E736500726573FE
:1000D000706F6E73653A200054696D65206F75749A
:1000E00020323A20496E636F6D706C6574652072C2
:1000F0006573706F6E73650054696D65206F7574FC
:1001000020313A204E6F20726573706F6E736520D8
:1001100066726F6D206D6F64756C650073656E64DB
:10012000436F6D6D616E643A200000000000250091
:1001300028002B0000000000240027002A000000F7
:10014000000023002600290004040404040404041D
:100150000202020202020303030303030102040872
:100160001020408001020408102001020408102021
:10017000ED07190B11241FBECFEFD8E0DEBFCDBFB6
:1001800011E0A0E0B1E0E2E6F7E102C005900D92D7
:10019000A43CB107D9F724E0A4ECB1E001C01D9262
:1001A000AA30B207E1F710E0C9EBD0E004C0219714
:1001B000FE010E948C0BC83BD107C9F70E94D308EF
:1001C0000C94A40B0C940000582FDC018FEF9FEFD0
:1001D0002A2F251B261798F54D91242F30E074E027
:1001E000359527957A95E1F7FC0174E0EE0FFF1F36
:1001F0007A95E1F72E2B3F2BFC01EF2FFF27E2959D
:10020000EF70EE0FFF1FEA58FE4F80819181282783
:100210003927C90174E0880F991F7A95E1F74F706B
:10022000842BF901EF2FFF27E295EF70EE0FFF1FF0
:10023000EA58FE4F2081318182279327C9CF089544
:10024000EF92FF920F931F93CF93DF938C017B016B
:10025000C0E0D0E0F701EC0FFD1F6491662361F070
:10026000D801ED91FC910190F081E02DC801099534
:10027000892B11F02196EECFCE01DF91CF911F9106
:100280000F91FF90EF900895CF92DF92EF92FF923F
:100290000F931F93CF93DF936C017A018B01C0E022
:1002A000D0E0CE15DF0589F0D8016D918D01D60122
:1002B000ED91FC910190F081E02DC6010995892B0B
:1002C00011F47E0102C02196ECCFC701DF91CF91DE
:1002D0001F910F91FF90EF90DF90CF900895FC0158
:1002E000538D448D252F30E0842F90E0821B930B9B
:1002F000541710F0CF96089501970895FC01918D41
:10030000828D981761F0828DDF01A80FB11D5D9677
:100310008C91928D9F5F9F73928F90E008958FEFE5
:100320009FEF0895FC01918D828D981731F0828D99
:10033000E80FF11D858D90E008958FEF9FEF0895F0
:10034000FC01918D228D892F90E0805C9F4F821B54
:1003500091098F739927089589E492E00E94A00182
:1003600021E0892B09F420E0822F0895FC01848D7F
:10037000DF01A80FB11DA35ABF4F2C91848D90E0CF
:1003800001968F739927848FA689B7892C93A089AA
:10039000B1898C9180648C93938D848D981306C061
:1003A0000288F389E02D80818F7D80830895EF920C
:1003B000FF920F931F93CF93DF93EC0181E0888F1F
:1003C0009B8D8C8D981305C0E889F989808185FD06
:1003D00024C0F62E0B8D10E00F5F1F4F0F731127F7
:1003E000E02E8C8DE8120CC00FB607FCFACFE8891E
:1003F000F989808185FFF5CFCE010E94B601F1CF4A
:100400008B8DFE01E80FF11DE35AFF4FF0820B8F39
:10041000EA89FB898081806207C0EE89FF89608359
:10042000E889F98980818064808381E090E0DF91B0
:10043000CF911F910F91FF90EF900895CF93DF938D
:10044000EC01888D8823C9F0EA89FB89808185FDCC
:1004500005C0A889B9898C9186FD0FC00FB607FC2D
:10046000F5CF808185FFF2CFA889B9898C9185FF6E
:10047000EDCFCE010E94B601E7CFDF91CF91089575
:1004800080E090E0892B29F00E94AC0181110C944E
:100490000000089590E0FC01E859FF4F3491FC0101
:1004A000E45AFE4F2491FC01E85BFE4FE491EE23F9
:1004B00009F43BC0332339F1333091F038F4313053
:1004C000A9F0323001F584B58F7D12C0373091F03C
:1004D0003830A1F03430B9F4809180008F7D03C0B2
:1004E000809180008F77809380000DC084B58F77D6
:1004F00084BD09C08091B0008F7703C08091B000A7
:100500008F7D8093B000F0E0EE0FFF1FE65DFE4FA1
:10051000A591B4918FB7F894EC91611103C0209527
:100520002E2301C02E2B2C938FBF08953FB7F89434
:100530008091050290910602A0910702B0910802F5
:1005400026B5A89B05C02F3F19F00196A11DB11D2E
:100550003FBFBA2FA92F982F8827820F911DA11D69
:10056000B11DBC01CD0142E0660F771F881F991FA6
:100570004A95D1F708958F929F92AF92BF92CF92F2
:10058000DF92EF92FF926B017C010E9496024B0179
:100590005C01C114D104E104F104F1F00E9496025F
:1005A000DC01CB0188199909AA09BB09883E93404F
:1005B000A105B10570F321E0C21AD108E108F108E4
:1005C00088EE880E83E0981EA11CB11CC114D104D2
:1005D000E104F10419F7DDCFFF90EF90DF90CF90A9
:1005E000BF90AF909F908F900895209143023091DB
:1005F00044022817390771F4909141028091420218
:10060000981741F0E0914102F0E0EC53FE4F8081F9
:1006100090E008958FEF9FEF089508951F93CF9373
:10062000DF93DC015C962D913C915D97211531059E
:1006300039F481E090E013969C938E9312973DC01D
:100640005196ED91FC91529750969C915097892F1D
:1006500080951FB75E964C915E9741FB772770F9A6
:1006600041FD6095F8944081772311F0492B01C03A
:1006700048234083E9012197F1F748E0508160FF6A
:1006800002C0592B01C058235083E9012197F1F78B
:100690006695415099F7772321F0908189238083D3
:1006A00003C08081982B90831FBF5C968D919C9195
:1006B0005D970197F1F721E030E0C901DF91CF911B
:1006C0001F91089520914302309144022817390761
:1006D00071F4809142022091410290E0805C9F4F32
:1006E000821B910960E470E00E94230B089580E072
:1006F00090E0089520914302309144022817390771
:10070000B9F49091410280914202981789F0E091EA
:100710004102F0E0EC53FE4F80812091410230E035
:100720002F5F3F4F2F7333272093410290E00895AE
:100730008FEF9FEF0895E0914302F0914402E81794
:10074000F90769F4A389B4899C91858980958923E7
:100750008C93109244021092430281E0089580E04D
:1007600008959B01AC0110920604109205041092AA
:10077000040410920304109202041092010460E039
:1007800079E08DE390E00E94590BF90124303105A6
:1007900018F0C901039702C081E090E0909308042B
:1007A000809307049091F703963108F075C0B90162
:1007B000769567956431710518F06351710902C02F
:1007C00061E070E07093020460930104369720F0BA
:1007D000B9016550710902C061E070E070930404D2
:1007E00060930304B901660F771F260F371F3695F4
:1007F0002795369527952D30310518F02C50310965
:1008000002C021E030E030930604209305042091DB
:100810006800983050F031E09E3008F430E081E01C
:1008200001C0880F3A95EAF701C084E0822B8093DB
:100830006800983038F09E3040F0963148F020E063
:1008400030E008C02DE630E005C02BE630E002C005
:100850002CE630E03093FF032093FE03983030F411
:1008600081E001C0880F9A95EAF70EC0292F30E089
:100870009E3018F42850310902C02E50310981E011
:1008800001C0880F2A95EAF780930004809107043D
:10089000909108040197F1F7809105049091060466
:1008A000892B21F1809143029091440223E08B3EF9
:1008B0009207E1F0009711F00E949B0380910904D8
:1008C0008E7F8093090410924202109241028BEEB7
:1008D00093E09093440280934302E091FE03F091F1
:1008E000FF03908180910004892B8083089580E02C
:1008F00090E0089508950E94920B6115710579F0BA
:10090000FB0101900020E9F73197AF01461B570B1F
:10091000DC01ED91FC910280F381E02D099480E0EF
:1009200090E008954F925F926F927F92EF92FF92C4
:100930000F931F93CF93DF93CDB7DEB7A1970FB679
:10094000F894DEBF0FBECDBF7C01FA01CB0119A226
:10095000223008F42AE08E010F5D1F4F422E512CE9
:10096000612C712CBF01A30192010E94370BF90188
:10097000CA01015011096A3014F4605D01C0695C5C
:10098000D8016C93232B242B252B61F7B801C701C9
:100990000E947D04A1960FB6F894DEBF0FBECDBFB6
:1009A000DF91CF911F910F91FF90EF907F906F900B
:1009B0005F904F900895EF92FF920F931F93CF9304
:1009C000DF938091EA03882309F442C0C091E702D3
:1009D000CB5F06EE12E0D0E08091E7039091E80350
:1009E0009801265E32402C173D0740F56AEB71E016
:1009F0000E947D047801F8018081803140F46DEB24
:100A000071E08091E7039091E8030E947D040F5FFD
:100A10001F4FF701408150E060E070E020E18091DD
:100A2000E7039091E8030E9492046FEB71E08091DC
:100A3000E7039091E8030E947D04CECF61EC71E062
:100A4000DF91CF911F910F91FF90EF900C947D0457
:100A5000DF91CF911F910F91FF90EF9008950F9329
:100A60001F93CF93DF93EC010E9420018C0161EC76
:100A700071E0CE010E947D04800F911FDF91CF9124
:100A80001F910F9108954F925F926F927F928F9274
:100A90009F92AF92BF92CF92DF92EF92FF920F930D
:100AA0001F93CF93DF9379014093E7028093E8028D
:100AB000962FA9EEB2E0FB018E2F891B841718F444
:100AC00081918D93F9CF8FEF8093E602C091E70279
:100AD0001091E80262E06C0F87EE92E00E94E40061
:100AE000D0E0FE01EA51FD4F93832496FE01EA51C6
:100AF000FD4F80838091EA03882351F06CE171E01F
:100B00008091E7039091E8030E9420010E94DB049A
:100B10008091E5039091E603DC01ED91FC91008466
:100B2000F185E02D0995892B61F08091E503909185
:100B3000E603DC01ED91FC910284F385E02D09953B
:100B4000E7CFD12C2D2D30E0C217D3078CF0809148
:100B5000E5039091E603DC01ED91FC91D901AA51E6
:100B6000BD4F0190F081E02D6C910995D394EACFAF
:100B700001111BC08091E5039091E603DC01ED912A
:100B8000FC910680F781E02DDF91CF911F910F91AD
:100B9000FF90EF90DF90CF90BF90AF909F908F909D
:100BA0007F906F905F904F9009948FB7F8948090EA
:100BB000450290904602A0904702B09048028FBF35
:100BC0002701612C712C8091E5039091E603DC01F3
:100BD000ED91FC910084F185E02D0995892B59F563
:100BE0002FB7F8948091450290914602A091470258
:100BF000B09148022FBF88199909AA09BB09481664
:100C000059066A067B0680F48091EA03882341F046
:100C100068EF70E08091E7039091E8030E942F0550
:100C200081E08093E602ACC061E070E080E090E09B
:100C30000E94BB02C8CFD0E0CEEF6701E12CF12CBF
:100C4000DC1708F046C02FB7F894809145029091C8
:100C50004602A0914702B09148022FBF8819990916
:100C6000AA09BB09C816D906EA06FB0638F4809122
:100C7000EA038823A9F268ED70E0CCCF8091E50308
:100C80009091E603DC01ED91FC910084F185E02D6B
:100C90000995892BA9F28091E5039091E603DC0187
:100CA000ED91FC910284F385E02D0995ED2FF0E0A4
:100CB000EA51FD4F8083D13021F42091E702C7E053
:100CC000C20F81E08D0FD1E08F3F08F4D0E0D80F44
:100CD000B7CF8091EA03882351F06DEC70E08091EA
:100CE000E7039091E8030E9420010E94DB046DEF6E
:100CF0006C0F87EE92E00E94E4002C2F30E02A5126
:100D00003D4FF9013297408150E0692F7727461710
:100D1000570739F43196208130E099272817390791
:100D200051F082E08093E6028091EA03882341F14A
:100D30006CEB70E00DC08091E8028117F9F083E060
:100D40008093E6028091EA038823D1F066EA70E09E
:100D50008091E7039091E803DF91CF911F910F916C
:100D6000FF90EF90DF90CF90BF90AF909F908F90CB
:100D70007F906F905F904F900C942F051092E60239
:100D8000DF91CF911F910F91FF90EF90DF90CF9067
:100D9000BF90AF909F908F907F906F905F904F909B
:100DA00008951F920F920FB60F9211242F933F9325
:100DB0004F935F936F937F938F939F93AF93BF9363
:100DC000EF93FF9389E492E00E94B601FF91EF91C7
:100DD000BF91AF919F918F917F916F915F914F9153
:100DE0003F912F910F900FBE0F901F9018951F925B
:100DF0000F920FB60F9211242F938F939F93EF931F
:100E0000FF93E0915902F0915A028081E0915F02D4
:100E1000F091600282FD12C09081809162028F5F2A
:100E20008F7320916302821751F0E0916202F0E02B
:100E3000E75BFD4F958F8093620201C08081FF9137
:100E4000EF919F918F912F910F900FBE0F901F9058
:100E500018951F920F920FB60F9211242F933F9364
:100E60008F939F93AF93BF938091450290914602D9
:100E7000A0914702B09148023091040223E0230F71
:100E80002D3720F40196A11DB11D05C026E8230FC2
:100E90000296A11DB11D20930402809345029093F8
:100EA0004602A0934702B0934802809105029091B8
:100EB0000602A0910702B09108020196A11DB11D82
:100EC0008093050290930602A0930702B093080254
:100ED000BF91AF919F918F913F912F910F900FBE36
:100EE0000F901F9018951F920F920FB60F9211241A
:100EF0002F933F934F935F936F937F938F939F9322
:100F0000AF93BF93EF93FF93E0914302F0914402BC
:100F1000309709F451C0968DA685B785858591FFD8
:100F200004C09C91892329F447C09C91892309F02E
:100F300043C0A389B4899C918589809589238C932A
:100F4000868997890197F1F7608D718DA685B785A0
:100F5000558538E020E0CB010197F1F7822F90E032
:100F600095958795282F4C91452309F0206831509D
:100F700091F7868D81FD20958091420290E0019647
:100F80008F73992730914102381749F0A09142029E
:100F9000B0E0AC53BE4F2C938093420203C0868DC9
:100FA0008160868F828D938D0197F1F7A389B48933
:100FB0009C918589892B8C93FF91EF91BF91AF9183
:100FC0009F918F917F916F915F914F913F912F9161
:100FD0000F900FBE0F901F901895CF93DF93109234
:100FE0004C0210924B0288EE93E0A0E0B0E08093B8
:100FF0004D0290934E02A0934F02B09350022AE903
:1010000031E030934A022093490225EC30E03093DE
:1010100056022093550224EC30E03093580220937E
:10102000570220EC30E030935A022093590221EC11
:1010300030E030935C0220935B0222EC30E030938E
:101040005E0220935D0226EC30E030936002209334
:101050005F02109262021092630210926402109278
:1010600065021092EE031092ED038093EF039093CC
:10107000F003A093F103B093F2038CEA91E0909314
:10108000EC038093EB03109202041092010410927F
:1010900004041092030410920604109205041092A6
:1010A000080410920704609109046E7F6D7F6093BD
:1010B00009046695617081E0682783E00E944A0216
:1010C000EFE5F1E02491EBE4F1E08491882399F0DD
:1010D00090E0880F991FFC01EC5CFE4FA591B49144
:1010E000FC01E65DFE4F859194918FB7F894EC91E9
:1010F000E22BEC938FBFEFE5F1E0E491E093FB038B
:10110000EBE4F1E0E491F0E0EE0FFF1FE65DFE4F4F
:10111000859194919093FD038093FC03EEE5F1E0BB
:101120002491EAE4F1E084918823C1F090E0880FF3
:10113000991FFC01EC5CFE4FC591D491FC01E65D6A
:10114000FE4FA591B4919FB7F8948881E22FE09566
:101150008E2388838C91E823EC939FBF80910904B0
:1011600081FD04C061E082E00E944A0282E0809337
:10117000F703EEE5F1E0E491E093F803EAE4F1E04F
:10118000E491F0E0EE0FFF1FE25CFE4F8591949139
:101190009093FA038093F9031092E9031092EA0303
:1011A000DF91CF910895CF93DF93CDB7DEB76297EC
:1011B0000FB6F894DEBF0FBECDBF789484B58260C1
:1011C00084BD84B5816084BD85B5826085BD85B5EB
:1011D000816085BD80916E00816080936E00109269
:1011E00081008091810082608093810080918100E4
:1011F0008160809381008091800081608093800075
:101200008091B10084608093B1008091B0008160D2
:101210008093B00080917A00846080937A008091FE
:101220007A00826080937A0080917A008160809356
:101230007A0080917A00806880937A001092C100D1
:10124000E0915902F0915A0282E08083E0915502C8
:10125000F09156021082E0915702F091580280E11D
:10126000808310926102E0915D02F0915E0286E05F
:101270008083E0915B02F0915C02808180618083D9
:10128000E0915B02F0915C02808188608083E09154
:101290005B02F0915C02808180688083E0915B0258
:1012A000F0915C0280818F7D80838BEE93E0909340
:1012B000E6038093E50360E076E980E090E00E9439
:1012C000B1038BEE93E00E946203892B29F08BEE31
:1012D00093E00E947A03F5CF01E020ED37E040E093
:1012E00060E070E083E00E9443058091E602833075
:1012F000A1F419821A8282E08B8320E030E043E07F
:10130000BE016F5F7F4F8FE20E9443056CED75E079
:1013100080E090E00E94BB021BC060E072EC81E0C4
:1013200090E00E94B10319821A8286E98B831C82A5
:1013300000E020ED37E044E0BE016F5F7F4F86E0C4
:101340000E94430560E076E980E090E00E94B103EE
:1013500001E020ED37E040E060E070E083E00E94D3
:1013600043058091E602811151C0198285E08A838C
:1013700020ED37E042E0BE016F5F7F4F83E90E94BE
:101380004305FF24F394F982FA8220ED37E042E02E
:10139000BE016F5F7F4F81E90E94430588E0898B22
:1013A00020ED37E041E0BE016F5E7F4F87E90E948C
:1013B0004305F98284EF8A8320ED37E042E0BE01E5
:1013C0006F5F7F4F82E90E944305F9828CE08A8338
:1013D0001B8220ED37E043E0BE016F5F7F4F8AE95B
:1013E0000E94430580E1E6E6F1E0DE0111960190FE
:1013F0000D928A95E1F720ED37E040E1BE016F5F85
:101400007F4F8FE20E9443050CE112C0FFCF809115
:10141000E5039091E603DC01ED91FC910284F385F4
:10142000E02D09959091E903911110C08F3F71F063
:101430008091E5039091E603DC01ED91FC9100843D
:10144000F185E02D0995892B11F773C0E92FF0E0A4
:10145000EA51FD4F80839F5F81E09F3F08F480E069
:10146000890F8093E903882319F3482F50E02091D6
:10147000E70230E0295F3F4F42175307C9F6E82FD4
:10148000F0E0EA51FD4F10828F5F8F3FC1F710925D
:10149000E9038091EA03882351F06CE770E08091C2
:1014A000E7039091E8030E9420010E94DB04509121
:1014B000E702F090E80264E0650F87EE92E05A8B55
:1014C0000E94E4005A8927E0250F30E02A513D4F61
:1014D000F9013297608170E0E92FFF276E177F07CF
:1014E00009F09BC0F9013197208130E09927281736
:1014F000390709F092C0B2E2FB1229C051111CC099
:101500008091E90290E0A0E0B0E0BA2FA92F982FD7
:1015100088272091EA0230E0822B932B811524E06A
:10152000920709F47CC08430954009F47AC01830E1
:1015300049F00E9440027CCF583009F474C05A3000
:1015400009F473C0A5E0B3E0E5E2F2E01FC08091CA
:10155000EA03882309F46BC067E870E08091E70331
:101560009091E8030E942001C090E703D090E80327
:101570004F2D50E060E070E020E1C6010E9492042F
:1015800061EC71E0C6010E947D0451C08D9190E034
:101590008193919322E0ED33F207C1F74CE150E0E3
:1015A00065E272E089E092E00E94970B892B99F145
:1015B00050E0E52E51E0F52E16E44CE050E0B70186
:1015C00085E292E00E94970B892B91F4B701685E47
:1015D0007F4F89E492E00E947D0489E492E00E94BA
:1015E000A001892BD1F389E492E00E947E01182F9B
:1015F00082E2E80EF11CA6E6EA16A1E0FA06E9F698
:10160000173449F4E5E2F2E0A9E0B2E0802F01905E
:101610000D928A95E1F718E08CCF12E08ACF16E0A0
:1016200088CF17E086CF1AE084CF15E082CF14E090
:1016300080CF8CEA91E09093EC038093EB038BEEE8
:1016400093E00C949B0397FB072E16F4009407D0AD
:1016500077FD09D00E94780B07FC05D03EF49095E9
:1016600081959F4F0895709561957F4F0895A1E2F0
:101670001A2EAA1BBB1BFD010DC0AA1FBB1FEE1F0C
:10168000FF1FA217B307E407F50720F0A21BB30B57
:10169000E40BF50B661F771F881F991F1A9469F7D3
:1016A00060957095809590959B01AC01BD01CF012F
:1016B0000895052E97FB1EF400940E94700B57FDB1
:1016C00007D00E94370B07FC03D04EF40C94700B2C
:1016D00050954095309521953F4F4F4F5F4F08955E
:1016E00090958095709561957F4F8F4F9F4F08958E
:1016F000AA1BBB1B51E107C0AA1FBB1FA617B70738
:1017000010F0A61BB70B881F991F5A95A9F7809553
:101710009095BC01CD010895EE0FFF1F0590F49147
:10172000E02D099481E090E0F8940C94A40BFB0167
:10173000DC0104C08D910190801921F4415050408A
:10174000C8F7881B990B089510E0C9EBD0E004C0DE
:10175000FE010E948C0B2196CA3BD107C9F7F89471
:02176000FFCFB9
:10176200E20000004000050073000700000067006F
:10177200220090002800F7003530303733323634FB
:101782003300E20000000000150086000E00010098
:101792003100150040007E00F2003530303733371B
:1017A20035333200E200000020000000200000007B
:1017B200000000001500640046003C003530303760
:1017C20033333039390000000122000005072210AE
:1017D200001B03E801FF0000211042206330844017
:1017E200A550C660E770088129914AA16BB18CC1EE
:1017F200ADD1CEE1EFF100000000D70144016F014D
:101802001E02A0017E019201000000000E034401AD
:1018120077040D0362037A03F502205B0030005D5A
:04182200000D0A00AB
:107E0000112484B714BE81FFF0D085E080938100F7
:107E100082E08093C00088E18093C10086E0809377
:107E2000C20080E18093C4008EE0C9D0259A86E02C
:107E300020E33CEF91E0309385002093840096BBD3
:107E4000B09BFECF1D9AA8958150A9F7CC24DD24C4
:107E500088248394B5E0AB2EA1E19A2EF3E0BF2EE7
:107E6000A2D0813461F49FD0082FAFD0023811F036
:107E7000013811F484E001C083E08DD089C08234E0
:107E800011F484E103C0853419F485E0A6D080C0E4
:107E9000853579F488D0E82EFF2485D0082F10E0AE
:107EA000102F00270E291F29000F111F8ED06801E7
:107EB0006FC0863521F484E090D080E0DECF843638
:107EC00009F040C070D06FD0082F6DD080E0C81688
:107ED00080E7D80618F4F601B7BEE895C0E0D1E017
:107EE00062D089930C17E1F7F0E0CF16F0E7DF06D8
:107EF00018F0F601B7BEE89568D007B600FCFDCFD4
:107F0000A601A0E0B1E02C9130E011968C91119780
:107F100090E0982F8827822B932B1296FA010C0160
:107F200087BEE89511244E5F5F4FF1E0A038BF0790
:107F300051F7F601A7BEE89507B600FCFDCF97BE46
:107F4000E89526C08437B1F42ED02DD0F82E2BD052
:107F50003CD0F601EF2C8F010F5F1F4F84911BD097
:107F6000EA94F801C1F70894C11CD11CFA94CF0C13
:107F7000D11C0EC0853739F428D08EE10CD085E9AC
:107F80000AD08FE07ACF813511F488E018D01DD067
:107F900080E101D065CF982F8091C00085FFFCCF94
:107FA0009093C60008958091C00087FFFCCF809118
:107FB000C00084FD01C0A8958091C6000895E0E648
:107FC000F0E098E1908380830895EDDF803219F02E
:107FD00088E0F5DFFFCF84E1DECF1F93182FE3DFCA
:107FE0001150E9F7F2DF1F91089580E0E8DFEE27F6
:047FF000FF270994CA
:027FFE00040479
:0400000300007E007B
:00000001FF
